{
  "contractName": "CoinFlip",
  "abi": [
    {
      "anonymous": false,
      "inputs": [
        {
          "indexed": false,
          "internalType": "uint256",
          "name": "amountLost",
          "type": "uint256"
        }
      ],
      "name": "lose",
      "type": "event"
    },
    {
      "anonymous": false,
      "inputs": [
        {
          "indexed": false,
          "internalType": "uint256",
          "name": "amountWon",
          "type": "uint256"
        }
      ],
      "name": "win",
      "type": "event"
    },
    {
      "constant": true,
      "inputs": [],
      "name": "balance",
      "outputs": [
        {
          "internalType": "uint256",
          "name": "",
          "type": "uint256"
        }
      ],
      "payable": false,
      "stateMutability": "view",
      "type": "function"
    },
    {
      "constant": true,
      "inputs": [],
      "name": "owner",
      "outputs": [
        {
          "internalType": "address payable",
          "name": "",
          "type": "address"
        }
      ],
      "payable": false,
      "stateMutability": "view",
      "type": "function"
    },
    {
      "constant": true,
      "inputs": [],
      "name": "random",
      "outputs": [
        {
          "internalType": "uint256",
          "name": "",
          "type": "uint256"
        }
      ],
      "payable": false,
      "stateMutability": "view",
      "type": "function"
    },
    {
      "constant": false,
      "inputs": [
        {
          "internalType": "uint256",
          "name": "side",
          "type": "uint256"
        }
      ],
      "name": "placeBet",
      "outputs": [
        {
          "internalType": "string",
          "name": "error",
          "type": "string"
        }
      ],
      "payable": true,
      "stateMutability": "payable",
      "type": "function"
    },
    {
      "constant": false,
      "inputs": [],
      "name": "addFunds",
      "outputs": [],
      "payable": true,
      "stateMutability": "payable",
      "type": "function"
    },
    {
      "constant": false,
      "inputs": [
        {
          "internalType": "uint256",
          "name": "amount",
          "type": "uint256"
        }
      ],
      "name": "withdrawFunds",
      "outputs": [
        {
          "internalType": "uint256",
          "name": "",
          "type": "uint256"
        }
      ],
      "payable": false,
      "stateMutability": "nonpayable",
      "type": "function"
    },
    {
      "constant": false,
      "inputs": [],
      "name": "destroy",
      "outputs": [],
      "payable": false,
      "stateMutability": "nonpayable",
      "type": "function"
    }
  ],
  "bytecode": "0x6080604052336000806101000a81548173ffffffffffffffffffffffffffffffffffffffff021916908373ffffffffffffffffffffffffffffffffffffffff16021790555061076c806100536000396000f3fe6080604052600436106100705760003560e01c806383197ef01161004e57806383197ef0146101965780638da5cb5b146101ad578063a26759cb14610204578063b69ef8a81461020e57610070565b806310fe7c4814610075578063155dd5ee1461011c5780635ec01e4d1461016b575b600080fd5b6100a16004803603602081101561008b57600080fd5b8101908080359060200190929190505050610239565b6040518080602001828103825283818151815260200191508051906020019080838360005b838110156100e15780820151818401526020810190506100c6565b50505050905090810190601f16801561010e5780820380516001836020036101000a031916815260200191505b509250505060405180910390f35b34801561012857600080fd5b506101556004803603602081101561013f57600080fd5b8101908080359060200190929190505050610523565b6040518082815260200191505060405180910390f35b34801561017757600080fd5b50610180610655565b6040518082815260200191505060405180910390f35b3480156101a257600080fd5b506101ab610667565b005b3480156101b957600080fd5b506101c26106fa565b604051808273ffffffffffffffffffffffffffffffffffffffff1673ffffffffffffffffffffffffffffffffffffffff16815260200191505060405180910390f35b61020c61071f565b005b34801561021a57600080fd5b50610223610731565b6040518082815260200191505060405180910390f35b6060600034905067016345785d8a000081101580156102605750671bc16d674ec800008111155b61026957600080fd5b600281026001541161027a57600080fd5b60008314156103cb57600061028d610655565b90506000811415610334576000600283029050826001600082825403925050819055503373ffffffffffffffffffffffffffffffffffffffff166108fc829081150290604051600060405180830381858888f193505050501580156102f6573d6000803e3d6000fd5b507f5bc60cfcafe88466b6c311ed8a9dd10b71eca6f2d7f446fc937ddb277abd0ed7816040518082815260200191505060405180910390a1506103c9565b600181141561038957816001600082825401925050819055507f6832a2664078d94e80cfc93b9c93d0211839e9b533232222c2d219f034470ca5826040518082815260200191505060405180910390a16103c8565b6040518060400160405280601581526020017f736f6d657468696e672077656e742077726f6e672e00000000000000000000008152509250505061051e565b5b505b600183141561051c5760006103de610655565b90506001811415610485576000600283029050826001600082825403925050819055503373ffffffffffffffffffffffffffffffffffffffff166108fc829081150290604051600060405180830381858888f19350505050158015610447573d6000803e3d6000fd5b507f5bc60cfcafe88466b6c311ed8a9dd10b71eca6f2d7f446fc937ddb277abd0ed7816040518082815260200191505060405180910390a15061051a565b60008114156104da57816001600082825401925050819055507f6832a2664078d94e80cfc93b9c93d0211839e9b533232222c2d219f034470ca5826040518082815260200191505060405180910390a1610519565b6040518060400160405280601481526020017f736f6d657468696e672077656e742077726f6e670000000000000000000000008152509250505061051e565b5b505b505b919050565b60008060009054906101000a900473ffffffffffffffffffffffffffffffffffffffff1673ffffffffffffffffffffffffffffffffffffffff163373ffffffffffffffffffffffffffffffffffffffff161461057e57600080fd5b6001548211156105f6576040517f08c379a00000000000000000000000000000000000000000000000000000000081526004018080602001828103825260118152602001807f4e6f7420656e6f7567682066756e64732e00000000000000000000000000000081525060200191505060405180910390fd5b816001600082825403925050819055503373ffffffffffffffffffffffffffffffffffffffff166108fc839081150290604051600060405180830381858888f1935050505015801561064c573d6000803e3d6000fd5b50819050919050565b60006002428161066157fe5b06905090565b6000809054906101000a900473ffffffffffffffffffffffffffffffffffffffff1673ffffffffffffffffffffffffffffffffffffffff163373ffffffffffffffffffffffffffffffffffffffff16146106c057600080fd5b6000809054906101000a900473ffffffffffffffffffffffffffffffffffffffff1673ffffffffffffffffffffffffffffffffffffffff16ff5b6000809054906101000a900473ffffffffffffffffffffffffffffffffffffffff1681565b34600160008282540192505081905550565b6001548156fea265627a7a723158202f1e90a8546c73becc67f48f7abe3a98bda30dc17a532a15a902124f9cd05f5864736f6c63430005100032",
  "source": "import \"./Ownable.sol\";\r\npragma solidity 0.5.16;\r\n\r\n//Comments\r\n\r\ncontract CoinFlip is Ownable {\r\n\r\n  //keep track of balance\r\n  uint public balance;\r\n\r\n  //Minimum and maximum bets\r\n  uint constant minBet = 0.1 ether;\r\n  uint constant maxBet = 2 ether;\r\n\r\n  //Win & Lose event\r\n  event win(uint amountWon);\r\n  event lose(uint amountLost);\r\n\r\n  //Pseudo-randomness function\r\n  function random() public view returns (uint) {\r\n    return now % 2;\r\n  }\r\n\r\n  //Place bet on side of coin\r\n  function placeBet (uint side) external payable returns (string memory error){\r\n    uint amount = msg.value;\r\n    require (amount >= minBet && amount <= maxBet);\r\n\r\n    //check whether contract has funds to process this bet\r\n    require(balance > (amount * 2));\r\n\r\n    if (side == 0) {\r\n      uint result = random();\r\n\r\n      if (result == 0) {\r\n        uint amountWon = amount *2;\r\n        balance -= amount;\r\n        msg.sender.transfer(amountWon);\r\n        emit win(amountWon);\r\n      } else if (result == 1) {\r\n        balance += amount;\r\n        emit lose(amount);\r\n      } else {\r\n        return ('something went wrong.');\r\n      }\r\n    }\r\n\r\n\r\n    if (side == 1) {\r\n      uint result = random();\r\n\r\n      if (result == 1) {\r\n        uint amountWon = amount *2;\r\n        balance -= amount;\r\n        msg.sender.transfer(amountWon);\r\n        emit win(amountWon);\r\n      } else if (result == 0) {\r\n        balance += amount;\r\n        emit lose(amount);\r\n      } else {\r\n          return ('something went wrong');\r\n      }\r\n    }\r\n  }\r\n\r\n  //Fallback function to add funds to the Contract\r\n  function addFunds() external payable {\r\n    balance += msg.value;\r\n  }\r\n\r\n  //Funds withdrawal to cover costs of CoinFlip\r\n  function withdrawFunds(uint amount) external onlyOwner returns (uint) {\r\n    require(amount <= balance, 'Not enough funds.');\r\n    balance -= amount;\r\n    msg.sender.transfer(amount);\r\n    return amount;\r\n  }\r\n\r\n  // Contract may be destroyed by Owner\r\n  function destroy() public onlyOwner {\r\n    selfdestruct(owner);\r\n  }\r\n\r\n}\r\n",
  "sourcePath": "C:/Users/beny/OneDrive - CAY Trading Ltd/Coding/Ivan/Projects/Eth201/CoinFlip Project/Truffle/contracts/CoinFlip.sol",
  "compiler": {
    "name": "solc",
    "version": "0.5.16+commit.9c3226ce.Emscripten.clang"
  },
  "schemaVersion": "3.3.2",
  "updatedAt": "2020-12-04T10:39:08.740Z",
  "networkType": "ethereum",
  "devdoc": {
    "methods": {}
  },
  "userdoc": {
    "methods": {}
  }
}