{
  "contractName": "Ownable",
  "abi": [
    {
      "inputs": [],
      "payable": false,
      "stateMutability": "nonpayable",
      "type": "constructor"
    },
    {
      "constant": true,
      "inputs": [],
      "name": "owner",
      "outputs": [
        {
          "internalType": "address payable",
          "name": "",
          "type": "address"
        }
      ],
      "payable": false,
      "stateMutability": "view",
      "type": "function"
    }
  ],
  "bytecode": "0x608060405234801561001057600080fd5b50336000806101000a81548173ffffffffffffffffffffffffffffffffffffffff021916908373ffffffffffffffffffffffffffffffffffffffff16021790555060cf8061005f6000396000f3fe6080604052348015600f57600080fd5b506004361060285760003560e01c80638da5cb5b14602d575b600080fd5b60336075565b604051808273ffffffffffffffffffffffffffffffffffffffff1673ffffffffffffffffffffffffffffffffffffffff16815260200191505060405180910390f35b6000809054906101000a900473ffffffffffffffffffffffffffffffffffffffff168156fea265627a7a7231582016d40b3e110ebec5569e0c56e7acbc4d2ea4209444a3978228c4dfafe2a72ce164736f6c63430005100032",
  "source": "pragma solidity 0.5.16;\r\n\r\ncontract Ownable {\r\n\r\n  address payable public owner;\r\n\r\n  modifier onlyOwner {\r\n    require(msg.sender == owner);\r\n    _; //continue execution\r\n  }\r\n\r\n  constructor() public {\r\n    owner = msg.sender;\r\n  }\r\n\r\n}\r\n",
  "sourcePath": "C:\\Users\\beny\\OneDrive - CAY Trading Ltd\\Coding\\Ivan\\Projects\\Eth201\\CoinFlip Project\\Truffle\\contracts\\Ownable.sol",
  "compiler": {
    "name": "solc",
    "version": "0.5.16+commit.9c3226ce.Emscripten.clang"
  },
  "schemaVersion": "3.3.2",
  "updatedAt": "2020-12-04T10:39:02.631Z",
  "devdoc": {
    "methods": {}
  },
  "userdoc": {
    "methods": {}
  }
}