{
  "contractName": "CoinFlip",
  "abi": [
    {
      "anonymous": false,
      "inputs": [
        {
          "indexed": false,
          "internalType": "address",
          "name": "gambler",
          "type": "address"
        },
        {
          "indexed": false,
          "internalType": "string",
          "name": "result",
          "type": "string"
        },
        {
          "indexed": false,
          "internalType": "uint256",
          "name": "amount",
          "type": "uint256"
        }
      ],
      "name": "gameResult",
      "type": "event"
    },
    {
      "anonymous": false,
      "inputs": [
        {
          "indexed": false,
          "internalType": "uint256",
          "name": "randomNumber",
          "type": "uint256"
        }
      ],
      "name": "generatedRandomNumber",
      "type": "event"
    },
    {
      "anonymous": false,
      "inputs": [
        {
          "indexed": false,
          "internalType": "string",
          "name": "description",
          "type": "string"
        }
      ],
      "name": "logNewProvableQuery",
      "type": "event"
    },
    {
      "anonymous": false,
      "inputs": [
        {
          "indexed": false,
          "internalType": "bytes32",
          "name": "queryId",
          "type": "bytes32"
        }
      ],
      "name": "newBetPlaced",
      "type": "event"
    },
    {
      "anonymous": false,
      "inputs": [
        {
          "indexed": false,
          "internalType": "string",
          "name": "description",
          "type": "string"
        }
      ],
      "name": "provableVerificationFailed",
      "type": "event"
    },
    {
      "anonymous": false,
      "inputs": [
        {
          "indexed": false,
          "internalType": "address",
          "name": "gambler",
          "type": "address"
        }
      ],
      "name": "somethingWentWrong",
      "type": "event"
    },
    {
      "inputs": [],
      "name": "balance",
      "outputs": [
        {
          "internalType": "uint256",
          "name": "",
          "type": "uint256"
        }
      ],
      "stateMutability": "view",
      "type": "function",
      "constant": true
    },
    {
      "inputs": [
        {
          "internalType": "bytes32",
          "name": "",
          "type": "bytes32"
        }
      ],
      "name": "bets",
      "outputs": [
        {
          "internalType": "address payable",
          "name": "gambler",
          "type": "address"
        },
        {
          "internalType": "uint256",
          "name": "amount",
          "type": "uint256"
        },
        {
          "internalType": "uint256",
          "name": "side",
          "type": "uint256"
        },
        {
          "internalType": "uint256",
          "name": "result",
          "type": "uint256"
        }
      ],
      "stateMutability": "view",
      "type": "function",
      "constant": true
    },
    {
      "inputs": [
        {
          "internalType": "address",
          "name": "",
          "type": "address"
        }
      ],
      "name": "gamblerBalance",
      "outputs": [
        {
          "internalType": "uint256",
          "name": "",
          "type": "uint256"
        }
      ],
      "stateMutability": "view",
      "type": "function",
      "constant": true
    },
    {
      "inputs": [
        {
          "internalType": "address",
          "name": "",
          "type": "address"
        }
      ],
      "name": "latestBet",
      "outputs": [
        {
          "internalType": "bytes32",
          "name": "queryId",
          "type": "bytes32"
        },
        {
          "internalType": "bool",
          "name": "unsettled",
          "type": "bool"
        },
        {
          "internalType": "string",
          "name": "result",
          "type": "string"
        }
      ],
      "stateMutability": "view",
      "type": "function",
      "constant": true
    },
    {
      "inputs": [],
      "name": "lockedInBets",
      "outputs": [
        {
          "internalType": "uint256",
          "name": "",
          "type": "uint256"
        }
      ],
      "stateMutability": "view",
      "type": "function",
      "constant": true
    },
    {
      "inputs": [],
      "name": "owner",
      "outputs": [
        {
          "internalType": "address payable",
          "name": "",
          "type": "address"
        }
      ],
      "stateMutability": "view",
      "type": "function",
      "constant": true
    },
    {
      "inputs": [],
      "name": "winningsOwed",
      "outputs": [
        {
          "internalType": "uint256",
          "name": "",
          "type": "uint256"
        }
      ],
      "stateMutability": "view",
      "type": "function",
      "constant": true
    },
    {
      "inputs": [],
      "name": "random",
      "outputs": [
        {
          "internalType": "bytes32",
          "name": "",
          "type": "bytes32"
        }
      ],
      "stateMutability": "payable",
      "type": "function",
      "payable": true
    },
    {
      "inputs": [
        {
          "internalType": "uint256",
          "name": "_side",
          "type": "uint256"
        }
      ],
      "name": "placeBet",
      "outputs": [],
      "stateMutability": "payable",
      "type": "function",
      "payable": true
    },
    {
      "inputs": [
        {
          "internalType": "bytes32",
          "name": "_queryId",
          "type": "bytes32"
        },
        {
          "internalType": "string",
          "name": "_result",
          "type": "string"
        }
      ],
      "name": "__callback",
      "outputs": [],
      "stateMutability": "nonpayable",
      "type": "function"
    },
    {
      "inputs": [
        {
          "internalType": "bytes32",
          "name": "_myid",
          "type": "bytes32"
        },
        {
          "internalType": "string",
          "name": "_result",
          "type": "string"
        },
        {
          "internalType": "bytes",
          "name": "_proof",
          "type": "bytes"
        }
      ],
      "name": "__callback",
      "outputs": [],
      "stateMutability": "nonpayable",
      "type": "function"
    },
    {
      "inputs": [],
      "name": "getLatestBet",
      "outputs": [
        {
          "internalType": "string",
          "name": "",
          "type": "string"
        }
      ],
      "stateMutability": "view",
      "type": "function",
      "constant": true
    },
    {
      "inputs": [],
      "name": "gamblerWithdrawFunds",
      "outputs": [],
      "stateMutability": "nonpayable",
      "type": "function"
    },
    {
      "inputs": [],
      "name": "getGamblerWinningsOwed",
      "outputs": [
        {
          "internalType": "uint256",
          "name": "",
          "type": "uint256"
        }
      ],
      "stateMutability": "view",
      "type": "function",
      "constant": true
    },
    {
      "inputs": [],
      "name": "addFunds",
      "outputs": [],
      "stateMutability": "payable",
      "type": "function",
      "payable": true
    },
    {
      "inputs": [
        {
          "internalType": "uint256",
          "name": "amount",
          "type": "uint256"
        }
      ],
      "name": "withdrawFunds",
      "outputs": [
        {
          "internalType": "uint256",
          "name": "",
          "type": "uint256"
        }
      ],
      "stateMutability": "nonpayable",
      "type": "function"
    },
    {
      "inputs": [],
      "name": "destroy",
      "outputs": [],
      "stateMutability": "nonpayable",
      "type": "function"
    }
  ],
  "bytecode": "0x608060405234801561001057600080fd5b50336000806101000a81548173ffffffffffffffffffffffffffffffffffffffff021916908373ffffffffffffffffffffffffffffffffffffffff160217905550613efd806100606000396000f3fe6080604052600436106100fe5760003560e01c806383197ef011610095578063b69ef8a811610064578063b69ef8a81461050d578063c6604f8514610538578063c902c3ae146105c8578063de99503314610642578063df88126f1461071c576100fe565b806383197ef0146104945780638da5cb5b146104ab5780639564beba146104ec578063a26759cb14610503576100fe565b806338bbfa50116100d157806338bbfa501461027d5780634f255ef6146103e65780635405fec31461044b5780635ec01e4d14610476576100fe565b806310fe7c4814610103578063155dd5ee1461013157806327dc297e146101805780632c45938d14610252575b600080fd5b61012f6004803603602081101561011957600080fd5b8101908080359060200190929190505050610747565b005b34801561013d57600080fd5b5061016a6004803603602081101561015457600080fd5b810190808035906020019092919050505061098a565b6040518082815260200191505060405180910390f35b34801561018c57600080fd5b50610250600480360360408110156101a357600080fd5b8101908080359060200190929190803590602001906401000000008111156101ca57600080fd5b8201836020820111156101dc57600080fd5b803590602001918460018302840111640100000000831117156101fe57600080fd5b91908080601f016020809104026020016040519081016040528093929190818152602001838380828437600081840152601f19601f820116905080830192505050505050509192919290505050610ac9565b005b34801561025e57600080fd5b50610267610bee565b6040518082815260200191505060405180910390f35b34801561028957600080fd5b506103e4600480360360608110156102a057600080fd5b8101908080359060200190929190803590602001906401000000008111156102c757600080fd5b8201836020820111156102d957600080fd5b803590602001918460018302840111640100000000831117156102fb57600080fd5b91908080601f016020809104026020016040519081016040528093929190818152602001838380828437600081840152601f19601f8201169050808301925050505050505091929192908035906020019064010000000081111561035e57600080fd5b82018360208201111561037057600080fd5b8035906020019184600183028401116401000000008311171561039257600080fd5b91908080601f016020809104026020016040519081016040528093929190818152602001838380828437600081840152601f19601f820116905080830192505050505050509192919290505050610c3a565b005b3480156103f257600080fd5b506104356004803603602081101561040957600080fd5b81019080803573ffffffffffffffffffffffffffffffffffffffff169060200190929190505050610c5d565b6040518082815260200191505060405180910390f35b34801561045757600080fd5b50610460610c75565b6040518082815260200191505060405180910390f35b61047e610c7b565b6040518082815260200191505060405180910390f35b3480156104a057600080fd5b506104a9610cf4565b005b3480156104b757600080fd5b506104c0610da3565b604051808273ffffffffffffffffffffffffffffffffffffffff16815260200191505060405180910390f35b3480156104f857600080fd5b50610501610dc7565b005b61050b610f0a565b005b34801561051957600080fd5b50610522610f1e565b6040518082815260200191505060405180910390f35b34801561054457600080fd5b5061054d610f24565b6040518080602001828103825283818151815260200191508051906020019080838360005b8381101561058d578082015181840152602081019050610572565b50505050905090810190601f1680156105ba5780820380516001836020036101000a031916815260200191505b509250505060405180910390f35b3480156105d457600080fd5b50610601600480360360208110156105eb57600080fd5b8101908080359060200190929190505050611006565b604051808573ffffffffffffffffffffffffffffffffffffffff16815260200184815260200183815260200182815260200194505050505060405180910390f35b34801561064e57600080fd5b506106916004803603602081101561066557600080fd5b81019080803573ffffffffffffffffffffffffffffffffffffffff169060200190929190505050611056565b60405180848152602001831515815260200180602001828103825283818151815260200191508051906020019080838360005b838110156106df5780820151818401526020810190506106c4565b50505050905090810190601f16801561070c5780820380516001836020036101000a031916815260200191505b5094505050505060405180910390f35b34801561072857600080fd5b50610731611125565b6040518082815260200191505060405180910390f35b60001515600a60003373ffffffffffffffffffffffffffffffffffffffff1673ffffffffffffffffffffffffffffffffffffffff16815260200190815260200160002060010160009054906101000a900460ff16151514610810576040517f08c379a00000000000000000000000000000000000000000000000000000000081526004018080602001828103825260158152602001807f5374696c6c2068617320616e206f70656e20426574000000000000000000000081525060200191505060405180910390fd5b67016345785d8a000034101580156108305750671bc16d674ec800003411155b61083957600080fd5b6002340260026007540260085401600654031161085557600080fd5b61085d613d2e565b33816000019073ffffffffffffffffffffffffffffffffffffffff16908173ffffffffffffffffffffffffffffffffffffffff1681525050348160200181815250508181604001818152505060006108b3610c7b565b90506108bd613d6c565b8181600001818152505060018160200190151590811515815250506040518060400160405280600781526020017f50656e64696e67000000000000000000000000000000000000000000000000008152508160400181905250610920838361112b565b5061092b81336111e8565b61093760065434611276565b600681905550346007600082825401925050819055507f36b4c43258795c1d1416541eb75af1a46365c67698466623b537c4f6ee7512fc826040518082815260200191505060405180910390a150505050565b60008060009054906101000a900473ffffffffffffffffffffffffffffffffffffffff1673ffffffffffffffffffffffffffffffffffffffff163373ffffffffffffffffffffffffffffffffffffffff16146109e557600080fd5b6002600754026008540160065403821115610a68576040517f08c379a00000000000000000000000000000000000000000000000000000000081526004018080602001828103825260118152602001807f4e6f7420656e6f7567682066756e64732e00000000000000000000000000000081525060200191505060405180910390fd5b610a74600654836112fe565b6006819055503373ffffffffffffffffffffffffffffffffffffffff166108fc839081150290604051600060405180830381858888f19350505050158015610ac0573d6000803e3d6000fd5b50819050919050565b610ad1611381565b73ffffffffffffffffffffffffffffffffffffffff163373ffffffffffffffffffffffffffffffffffffffff1614610b0857600080fd5b600060016002836040516020018082805190602001908083835b60208310610b455780518252602082019150602081019050602083039250610b22565b6001836020036101000a0380198251168184511680821785525050505050509050019150506040516020818303038152906040528051906020012060001c81610b8a57fe5b06019050806009600085815260200190815260200160002060030181905550610bb2836116a3565b7fc13d60fe9dffdb6908d2d446cd18134373a51db0738ee04f296eeb9128121cbc816040518082815260200191505060405180910390a1505050565b600080600b60003373ffffffffffffffffffffffffffffffffffffffff1673ffffffffffffffffffffffffffffffffffffffff1681526020019081526020016000205490508091505090565b6000801b600460008060001b815260200190815260200160002081905550505050565b600b6020528060005260406000206000915090505481565b60085481565b60008060009050600062030d4090506000600190506000610c9d848385611ffa565b90507f94f2559b5e2b297de3db1587daf2352e872ada3dad01dab9ee3733592fa22ed3604051808060200182810382526036815260200180613e926036913960400191505060405180910390a18094505050505090565b60008054906101000a900473ffffffffffffffffffffffffffffffffffffffff1673ffffffffffffffffffffffffffffffffffffffff163373ffffffffffffffffffffffffffffffffffffffff1614610d4c57600080fd5b600060075414610d5b57600080fd5b600060085414610d6a57600080fd5b60008054906101000a900473ffffffffffffffffffffffffffffffffffffffff1673ffffffffffffffffffffffffffffffffffffffff16ff5b60008054906101000a900473ffffffffffffffffffffffffffffffffffffffff1681565b6000600b60003373ffffffffffffffffffffffffffffffffffffffff1673ffffffffffffffffffffffffffffffffffffffff1681526020019081526020016000205411610e1357600080fd5b6000600b60003373ffffffffffffffffffffffffffffffffffffffff1673ffffffffffffffffffffffffffffffffffffffff1681526020019081526020016000205490506000600b60003373ffffffffffffffffffffffffffffffffffffffff1673ffffffffffffffffffffffffffffffffffffffff16815260200190815260200160002081905550610ea8600654826112fe565b600681905550610eba600854826112fe565b6008819055503373ffffffffffffffffffffffffffffffffffffffff166108fc829081150290604051600060405180830381858888f19350505050158015610f06573d6000803e3d6000fd5b5050565b610f1660065434611276565b600681905550565b60065481565b6060600a60003373ffffffffffffffffffffffffffffffffffffffff1673ffffffffffffffffffffffffffffffffffffffff1681526020019081526020016000206002018054600181600116156101000203166002900480601f016020809104026020016040519081016040528092919081815260200182805460018160011615610100020316600290048015610ffc5780601f10610fd157610100808354040283529160200191610ffc565b820191906000526020600020905b815481529060010190602001808311610fdf57829003601f168201915b5050505050905090565b60096020528060005260406000206000915090508060000160009054906101000a900473ffffffffffffffffffffffffffffffffffffffff16908060010154908060020154908060030154905084565b600a6020528060005260406000206000915090508060000154908060010160009054906101000a900460ff1690806002018054600181600116156101000203166002900480601f01602080910402602001604051908101604052809291908181526020018280546001816001161561010002031660029004801561111b5780601f106110f05761010080835404028352916020019161111b565b820191906000526020600020905b8154815290600101906020018083116110fe57829003601f168201915b5050505050905083565b60075481565b6000826009600084815260200190815260200160002060008201518160000160006101000a81548173ffffffffffffffffffffffffffffffffffffffff021916908373ffffffffffffffffffffffffffffffffffffffff1602179055506020820151816001015560408201518160020155606082015181600301559050506009600083815260200190815260200160002060000160009054906101000a900473ffffffffffffffffffffffffffffffffffffffff16905092915050565b81600a60008373ffffffffffffffffffffffffffffffffffffffff1673ffffffffffffffffffffffffffffffffffffffff1681526020019081526020016000206000820151816000015560208201518160010160006101000a81548160ff021916908315150217905550604082015181600201908051906020019061126e929190613d92565b509050505050565b6000808284019050838110156112f4576040517f08c379a000000000000000000000000000000000000000000000000000000000815260040180806020018281038252601b8152602001807f536166654d6174683a206164646974696f6e206f766572666c6f77000000000081525060200191505060405180910390fd5b8091505092915050565b600082821115611376576040517f08c379a000000000000000000000000000000000000000000000000000000000815260040180806020018281038252601e8152602001807f536166654d6174683a207375627472616374696f6e206f766572666c6f77000081525060200191505060405180910390fd5b818303905092915050565b60008073ffffffffffffffffffffffffffffffffffffffff16600260009054906101000a900473ffffffffffffffffffffffffffffffffffffffff1673ffffffffffffffffffffffffffffffffffffffff16148061140957506000611407600260009054906101000a900473ffffffffffffffffffffffffffffffffffffffff1661261f565b145b1561141a57611418600061262a565b505b600260009054906101000a900473ffffffffffffffffffffffffffffffffffffffff1673ffffffffffffffffffffffffffffffffffffffff166338cc48316040518163ffffffff1660e01b8152600401602060405180830381600087803b15801561148457600080fd5b505af1158015611498573d6000803e3d6000fd5b505050506040513d60208110156114ae57600080fd5b810190808051906020019092919050505073ffffffffffffffffffffffffffffffffffffffff16600160009054906101000a900473ffffffffffffffffffffffffffffffffffffffff1673ffffffffffffffffffffffffffffffffffffffff16146115f957600260009054906101000a900473ffffffffffffffffffffffffffffffffffffffff1673ffffffffffffffffffffffffffffffffffffffff166338cc48316040518163ffffffff1660e01b8152600401602060405180830381600087803b15801561157d57600080fd5b505af1158015611591573d6000803e3d6000fd5b505050506040513d60208110156115a757600080fd5b8101908080519060200190929190505050600160006101000a81548173ffffffffffffffffffffffffffffffffffffffff021916908373ffffffffffffffffffffffffffffffffffffffff1602179055505b600160009054906101000a900473ffffffffffffffffffffffffffffffffffffffff1673ffffffffffffffffffffffffffffffffffffffff1663c281d19e6040518163ffffffff1660e01b8152600401602060405180830381600087803b15801561166357600080fd5b505af1158015611677573d6000803e3d6000fd5b505050506040513d602081101561168d57600080fd5b8101908080519060200190929190505050905090565b60006009600083815260200190815260200160002060010154905060006009600084815260200190815260200160002060000160009054906101000a900473ffffffffffffffffffffffffffffffffffffffff1690506000600960008581526020019081526020016000206002015490506000600960008681526020019081526020016000206003015490506001821415611b915760018114156118d9576040518060400160405280600381526020017f57696e0000000000000000000000000000000000000000000000000000000000815250600a60008573ffffffffffffffffffffffffffffffffffffffff1673ffffffffffffffffffffffffffffffffffffffff16815260200190815260200160002060020190805190602001906117cc929190613d92565b506117d7838561263b565b60006117e48560026126aa565b90506117f260085482611276565b60088190555080600b60008673ffffffffffffffffffffffffffffffffffffffff1673ffffffffffffffffffffffffffffffffffffffff168152602001908152602001600020600082825401925050819055507f4c7bc13cb79f7a6bbac595942a1971230587dae97cd5b2f3221d3f7a46a17cc58482604051808373ffffffffffffffffffffffffffffffffffffffff16815260200180602001838152602001828103825260038152602001807f57696e0000000000000000000000000000000000000000000000000000000000815250602001935050505060405180910390a150611b90565b6002811415611a0b576040518060400160405280600481526020017f4c6f736500000000000000000000000000000000000000000000000000000000815250600a60008573ffffffffffffffffffffffffffffffffffffffff1673ffffffffffffffffffffffffffffffffffffffff168152602001908152602001600020600201908051906020019061196d929190613d92565b50611978838561263b565b7f4c7bc13cb79f7a6bbac595942a1971230587dae97cd5b2f3221d3f7a46a17cc58385604051808373ffffffffffffffffffffffffffffffffffffffff16815260200180602001838152602001828103825260048152602001807f4c6f736500000000000000000000000000000000000000000000000000000000815250602001935050505060405180910390a1611b8f565b6040518060400160405280600c81526020017f42657420726566756e6465640000000000000000000000000000000000000000815250600a60008573ffffffffffffffffffffffffffffffffffffffff1673ffffffffffffffffffffffffffffffffffffffff1681526020019081526020016000206002019080519060200190611a96929190613d92565b50611aa1838561263b565b611aad60085485611276565b60088190555083600b60008573ffffffffffffffffffffffffffffffffffffffff1673ffffffffffffffffffffffffffffffffffffffff168152602001908152602001600020600082825401925050819055507f4c7bc13cb79f7a6bbac595942a1971230587dae97cd5b2f3221d3f7a46a17cc58385604051808373ffffffffffffffffffffffffffffffffffffffff168152602001806020018381526020018281038252600c8152602001807f42657420726566756e6465640000000000000000000000000000000000000000815250602001935050505060405180910390a15b5b5b6002821415611ff3576002811415611d3b576040518060400160405280600381526020017f57696e0000000000000000000000000000000000000000000000000000000000815250600a60008573ffffffffffffffffffffffffffffffffffffffff1673ffffffffffffffffffffffffffffffffffffffff1681526020019081526020016000206002019080519060200190611c2e929190613d92565b50611c39838561263b565b6000611c468560026126aa565b9050611c5460085482611276565b60088190555080600b60008673ffffffffffffffffffffffffffffffffffffffff1673ffffffffffffffffffffffffffffffffffffffff168152602001908152602001600020600082825401925050819055507f4c7bc13cb79f7a6bbac595942a1971230587dae97cd5b2f3221d3f7a46a17cc58482604051808373ffffffffffffffffffffffffffffffffffffffff16815260200180602001838152602001828103825260038152602001807f57696e0000000000000000000000000000000000000000000000000000000000815250602001935050505060405180910390a150611ff2565b6001811415611e6d576040518060400160405280600481526020017f4c6f736500000000000000000000000000000000000000000000000000000000815250600a60008573ffffffffffffffffffffffffffffffffffffffff1673ffffffffffffffffffffffffffffffffffffffff1681526020019081526020016000206002019080519060200190611dcf929190613d92565b50611dda838561263b565b7f4c7bc13cb79f7a6bbac595942a1971230587dae97cd5b2f3221d3f7a46a17cc58385604051808373ffffffffffffffffffffffffffffffffffffffff16815260200180602001838152602001828103825260048152602001807f4c6f736500000000000000000000000000000000000000000000000000000000815250602001935050505060405180910390a1611ff1565b6040518060400160405280600c81526020017f42657420726566756e6465640000000000000000000000000000000000000000815250600a60008573ffffffffffffffffffffffffffffffffffffffff1673ffffffffffffffffffffffffffffffffffffffff1681526020019081526020016000206002019080519060200190611ef8929190613d92565b50611f03838561263b565b611f0f60085485611276565b60088190555083600b60008573ffffffffffffffffffffffffffffffffffffffff1673ffffffffffffffffffffffffffffffffffffffff168152602001908152602001600020600082825401925050819055507f4c7bc13cb79f7a6bbac595942a1971230587dae97cd5b2f3221d3f7a46a17cc58385604051808373ffffffffffffffffffffffffffffffffffffffff168152602001806020018381526020018281038252600c8152602001807f42657420726566756e6465640000000000000000000000000000000000000000815250602001935050505060405180910390a15b5b5b5050505050565b6000808311801561200c575060208311155b61201557600080fd5b600a840293506060600167ffffffffffffffff8111801561203557600080fd5b506040519080825280601f01601f1916602001820160405280156120685781602001600182028036833780820191505090505b5090508360f81b8160008151811061207c57fe5b60200101907effffffffffffffffffffffffffffffffffffffffffffffffffffffffffffff1916908160001a9053506060602067ffffffffffffffff811180156120c557600080fd5b506040519080825280601f01601f1916602001820160405280156120f85781602001600182028036833780820191505090505b5090506060602067ffffffffffffffff8111801561211557600080fd5b506040519080825280601f01601f1916602001820160405280156121485781602001600182028036833780820191505090505b5090506000612155612730565b9050602083524241186001430340186020840152602082528060208301526060602067ffffffffffffffff8111801561218d57600080fd5b506040519080825280601f01601f1916602001820160405280156121c05781602001600182028036833780820191505090505b5090508860208201526060600867ffffffffffffffff811180156121e357600080fd5b506040519080825280601f01601f1916602001820160405280156122165781602001600182028036833780820191505090505b5090506122298260186008846000612a50565b50612232613e12565b604051806080016040528087815260200188815260200186815260200184815250905060006122976040518060400160405280600681526020017f72616e646f6d0000000000000000000000000000000000000000000000000000815250838c612aaf565b90506060600867ffffffffffffffff811180156122b357600080fd5b506040519080825280601f01601f1916602001820160405280156122e65781602001600182028036833780820191505090505b50905060208401517f0100000000000000000000000000000000000000000000000000000000000000810460278301537e01000000000000000000000000000000000000000000000000000000000000810460268301537d010000000000000000000000000000000000000000000000000000000000810460258301537c0100000000000000000000000000000000000000000000000000000000810460248301537b01000000000000000000000000000000000000000000000000000000810460238301537a01000000000000000000000000000000000000000000000000000081046022830153790100000000000000000000000000000000000000000000000000810460218301537801000000000000000000000000000000000000000000000000810460208301535061260c82828560016004811061242557fe5b602002015160028760006004811061243957fe5b60200201516040518082805190602001908083835b60208310612471578051825260208201915060208101905060208303925061244e565b6001836020036101000a038019825116818451168082178552505050505050905001915050602060405180830381855afa1580156124b3573d6000803e3d6000fd5b5050506040513d60208110156124c857600080fd5b8101908080519060200190929190505050876002600481106124e657fe5b60200201516040516020018085805190602001908083835b6020831061252157805182526020820191506020810190506020830392506124fe565b6001836020036101000a03801982511681845116808217855250505050505090500184805190602001908083835b60208310612572578051825260208201915060208101905060208303925061254f565b6001836020036101000a03801982511681845116808217855250505050505090500183815260200182805190602001908083835b602083106125c957805182526020820191506020810190506020830392506125a6565b6001836020036101000a03801982511681845116808217855250505050505090500194505050505060405160208183030381529060405280519060200120612e35565b8199505050505050505050509392505050565b6000813b9050919050565b6000612634612e51565b9050919050565b6000600a60008473ffffffffffffffffffffffffffffffffffffffff1673ffffffffffffffffffffffffffffffffffffffff16815260200190815260200160002060010160006101000a81548160ff021916908315150217905550806007600082825403925050819055505050565b6000808314156126bd576000905061272a565b60008284029050828482816126ce57fe5b0414612725576040517f08c379a0000000000000000000000000000000000000000000000000000000008152600401808060200182810382526021815260200180613e716021913960400191505060405180910390fd5b809150505b92915050565b60008073ffffffffffffffffffffffffffffffffffffffff16600260009054906101000a900473ffffffffffffffffffffffffffffffffffffffff1673ffffffffffffffffffffffffffffffffffffffff1614806127b8575060006127b6600260009054906101000a900473ffffffffffffffffffffffffffffffffffffffff1661261f565b145b156127c9576127c7600061262a565b505b600260009054906101000a900473ffffffffffffffffffffffffffffffffffffffff1673ffffffffffffffffffffffffffffffffffffffff166338cc48316040518163ffffffff1660e01b8152600401602060405180830381600087803b15801561283357600080fd5b505af1158015612847573d6000803e3d6000fd5b505050506040513d602081101561285d57600080fd5b810190808051906020019092919050505073ffffffffffffffffffffffffffffffffffffffff16600160009054906101000a900473ffffffffffffffffffffffffffffffffffffffff1673ffffffffffffffffffffffffffffffffffffffff16146129a857600260009054906101000a900473ffffffffffffffffffffffffffffffffffffffff1673ffffffffffffffffffffffffffffffffffffffff166338cc48316040518163ffffffff1660e01b8152600401602060405180830381600087803b15801561292c57600080fd5b505af1158015612940573d6000803e3d6000fd5b505050506040513d602081101561295657600080fd5b8101908080519060200190929190505050600160006101000a81548173ffffffffffffffffffffffffffffffffffffffff021916908373ffffffffffffffffffffffffffffffffffffffff1602179055505b600160009054906101000a900473ffffffffffffffffffffffffffffffffffffffff1673ffffffffffffffffffffffffffffffffffffffff1663abaa5f3e6040518163ffffffff1660e01b815260040160206040518083038186803b158015612a1057600080fd5b505afa158015612a24573d6000803e3d6000fd5b505050506040513d6020811015612a3a57600080fd5b8101908080519060200190929190505050905090565b6060600082850190508084511015612a6757600080fd5b600086602001905060008460200190505b868860200101821015612aa05781890151808288015250602082019150602081019050612a78565b85935050505095945050505050565b60008073ffffffffffffffffffffffffffffffffffffffff16600260009054906101000a900473ffffffffffffffffffffffffffffffffffffffff1673ffffffffffffffffffffffffffffffffffffffff161480612b3757506000612b35600260009054906101000a900473ffffffffffffffffffffffffffffffffffffffff1661261f565b145b15612b4857612b46600061262a565b505b600260009054906101000a900473ffffffffffffffffffffffffffffffffffffffff1673ffffffffffffffffffffffffffffffffffffffff166338cc48316040518163ffffffff1660e01b8152600401602060405180830381600087803b158015612bb257600080fd5b505af1158015612bc6573d6000803e3d6000fd5b505050506040513d6020811015612bdc57600080fd5b810190808051906020019092919050505073ffffffffffffffffffffffffffffffffffffffff16600160009054906101000a900473ffffffffffffffffffffffffffffffffffffffff1673ffffffffffffffffffffffffffffffffffffffff1614612d2757600260009054906101000a900473ffffffffffffffffffffffffffffffffffffffff1673ffffffffffffffffffffffffffffffffffffffff166338cc48316040518163ffffffff1660e01b8152600401602060405180830381600087803b158015612cab57600080fd5b505af1158015612cbf573d6000803e3d6000fd5b505050506040513d6020811015612cd557600080fd5b8101908080519060200190929190505050600160006101000a81548173ffffffffffffffffffffffffffffffffffffffff021916908373ffffffffffffffffffffffffffffffffffffffff1602179055505b6060600467ffffffffffffffff81118015612d4157600080fd5b50604051908082528060200260200182016040528015612d7557816020015b6060815260200190600190039081612d605790505b50905083600060048110612d8557fe5b602002015181600081518110612d9757fe5b602002602001018190525083600160048110612daf57fe5b602002015181600181518110612dc157fe5b602002602001018190525083600260048110612dd957fe5b602002015181600281518110612deb57fe5b602002602001018190525083600360048110612e0357fe5b602002015181600381518110612e1557fe5b6020026020010181905250612e2b8582856133a8565b9150509392505050565b8060046000848152602001908152602001600020819055505050565b600080612e71731d3b2638a7cc9f2cb3d298a3da7a90b67e5506ed61261f565b1115612f1357731d3b2638a7cc9f2cb3d298a3da7a90b67e5506ed600260006101000a81548173ffffffffffffffffffffffffffffffffffffffff021916908373ffffffffffffffffffffffffffffffffffffffff160217905550612f0a6040518060400160405280600b81526020017f6574685f6d61696e6e657400000000000000000000000000000000000000000081525061390e565b600190506133a5565b6000612f3273c03a2615d5efaf5f49f60b7bb6583eaec212fdf161261f565b1115612fd45773c03a2615d5efaf5f49f60b7bb6583eaec212fdf1600260006101000a81548173ffffffffffffffffffffffffffffffffffffffff021916908373ffffffffffffffffffffffffffffffffffffffff160217905550612fcb6040518060400160405280600c81526020017f6574685f726f707374656e33000000000000000000000000000000000000000081525061390e565b600190506133a5565b6000612ff373b7a07bcf2ba2f2703b24c0691b5278999c59ac7e61261f565b11156130955773b7a07bcf2ba2f2703b24c0691b5278999c59ac7e600260006101000a81548173ffffffffffffffffffffffffffffffffffffffff021916908373ffffffffffffffffffffffffffffffffffffffff16021790555061308c6040518060400160405280600981526020017f6574685f6b6f76616e000000000000000000000000000000000000000000000081525061390e565b600190506133a5565b60006130b473146500cfd35b22e4a392fe0adc06de1a1368ed4861261f565b11156131565773146500cfd35b22e4a392fe0adc06de1a1368ed48600260006101000a81548173ffffffffffffffffffffffffffffffffffffffff021916908373ffffffffffffffffffffffffffffffffffffffff16021790555061314d6040518060400160405280600b81526020017f6574685f72696e6b65627900000000000000000000000000000000000000000081525061390e565b600190506133a5565b600061317573a2998efd205fb9d4b4963afb70778d6354ad3a4161261f565b11156132175773a2998efd205fb9d4b4963afb70778d6354ad3a41600260006101000a81548173ffffffffffffffffffffffffffffffffffffffff021916908373ffffffffffffffffffffffffffffffffffffffff16021790555061320e6040518060400160405280600a81526020017f6574685f676f65726c690000000000000000000000000000000000000000000081525061390e565b600190506133a5565b6000613236736f485c8bf6fc43ea212e93bbf8ce046c7f1cb47561261f565b111561329a57736f485c8bf6fc43ea212e93bbf8ce046c7f1cb475600260006101000a81548173ffffffffffffffffffffffffffffffffffffffff021916908373ffffffffffffffffffffffffffffffffffffffff160217905550600190506133a5565b60006132b97320e12a1f859b3feae5fb2a0a32c18f5a65555bbf61261f565b111561331d577320e12a1f859b3feae5fb2a0a32c18f5a65555bbf600260006101000a81548173ffffffffffffffffffffffffffffffffffffffff021916908373ffffffffffffffffffffffffffffffffffffffff160217905550600190506133a5565b600061333c7351efaf4c8b3c9afbd5ab9f4bbc82784ab6ef8faa61261f565b11156133a0577351efaf4c8b3c9afbd5ab9f4bbc82784ab6ef8faa600260006101000a81548173ffffffffffffffffffffffffffffffffffffffff021916908373ffffffffffffffffffffffffffffffffffffffff160217905550600190506133a5565b600090505b90565b60008073ffffffffffffffffffffffffffffffffffffffff16600260009054906101000a900473ffffffffffffffffffffffffffffffffffffffff1673ffffffffffffffffffffffffffffffffffffffff1614806134305750600061342e600260009054906101000a900473ffffffffffffffffffffffffffffffffffffffff1661261f565b145b156134415761343f600061262a565b505b600260009054906101000a900473ffffffffffffffffffffffffffffffffffffffff1673ffffffffffffffffffffffffffffffffffffffff166338cc48316040518163ffffffff1660e01b8152600401602060405180830381600087803b1580156134ab57600080fd5b505af11580156134bf573d6000803e3d6000fd5b505050506040513d60208110156134d557600080fd5b810190808051906020019092919050505073ffffffffffffffffffffffffffffffffffffffff16600160009054906101000a900473ffffffffffffffffffffffffffffffffffffffff1673ffffffffffffffffffffffffffffffffffffffff161461362057600260009054906101000a900473ffffffffffffffffffffffffffffffffffffffff1673ffffffffffffffffffffffffffffffffffffffff166338cc48316040518163ffffffff1660e01b8152600401602060405180830381600087803b1580156135a457600080fd5b505af11580156135b8573d6000803e3d6000fd5b505050506040513d60208110156135ce57600080fd5b8101908080519060200190929190505050600160006101000a81548173ffffffffffffffffffffffffffffffffffffffff021916908373ffffffffffffffffffffffffffffffffffffffff1602179055505b6000600160009054906101000a900473ffffffffffffffffffffffffffffffffffffffff1673ffffffffffffffffffffffffffffffffffffffff16632ef3accc86856040518363ffffffff1660e01b81526004018080602001838152602001828103825284818151815260200191508051906020019080838360005b838110156136b757808201518184015260208101905061369c565b50505050905090810190601f1680156136e45780820380516001836020036101000a031916815260200191505b509350505050602060405180830381600087803b15801561370457600080fd5b505af1158015613718573d6000803e3d6000fd5b505050506040513d602081101561372e57600080fd5b81019080805190602001909291905050509050823a02670de0b6b3a764000001811115613761576000801b915050613907565b606061376c85613928565b9050600160009054906101000a900473ffffffffffffffffffffffffffffffffffffffff1673ffffffffffffffffffffffffffffffffffffffff1663c55c1cb68360008985896040518663ffffffff1660e01b8152600401808581526020018060200180602001848152602001838103835286818151815260200191508051906020019080838360005b838110156138115780820151818401526020810190506137f6565b50505050905090810190601f16801561383e5780820380516001836020036101000a031916815260200191505b50838103825285818151815260200191508051906020019080838360005b8381101561387757808201518184015260208101905061385c565b50505050905090810190601f1680156138a45780820380516001836020036101000a031916815260200191505b5096505050505050506020604051808303818588803b1580156138c657600080fd5b505af11580156138da573d6000803e3d6000fd5b50505050506040513d60208110156138f157600080fd5b8101908080519060200190929190505050925050505b9392505050565b8060039080519060200190613924929190613d92565b5050565b60606139326139a5565b61393a613e39565b613946816104006139b1565b61394f816139fb565b60005b835181101561398e5761398184828151811061396a57fe5b602002602001015183613a0990919063ffffffff16565b8080600101915050613952565b5061399881613a2e565b8060000151915050919050565b60405180590338823950565b60008190506000602082816139c257fe5b06146139db57602081816139d257fe5b06602003810190505b808360200181815250506040518084526000815281810160405250505050565b613a06816004613a3c565b50565b613a168260028351613a5d565b613a298183613b9d90919063ffffffff16565b505050565b613a39816007613a3c565b50565b613a59601f60058360ff16901b1783613c4890919063ffffffff16565b5050565b60178111613a8957613a848160058460ff16901b60ff161784613c4890919063ffffffff16565b613b98565b60ff8111613aca57613aae601860058460ff16901b1784613c4890919063ffffffff16565b613ac481600185613c889092919063ffffffff16565b50613b97565b61ffff8111613b0c57613af0601960058460ff16901b1784613c4890919063ffffffff16565b613b0681600285613c889092919063ffffffff16565b50613b96565b63ffffffff8111613b5057613b34601a60058460ff16901b1784613c4890919063ffffffff16565b613b4a81600485613c889092919063ffffffff16565b50613b95565b67ffffffffffffffff8111613b9457613b7c601b60058460ff16901b1784613c4890919063ffffffff16565b613b9281600885613c889092919063ffffffff16565b505b5b5b5b5b505050565b613ba5613e39565b82602001518360000151518351011115613bd557613bd4836002613bce86602001518651613cef565b02613d0b565b5b60008060008451905085518051602081830101945086518101825260208701935050505b60208110613c1c5781518352602083019250602082019150602081039050613bf9565b60006001826020036101000a039050801983511681855116818117865250508694505050505092915050565b81602001516001836000015151011115613c6e57613c6d826002846020015102613d0b565b5b815180516020818301018381536001820183525050505050565b613c90613e39565b836020015184600001515183011115613cbe57613cbd846002613cb7876020015186613cef565b02613d0b565b5b60006001836101000a0390508451805184818301018684198251161781528582018352505050849150509392505050565b600081831115613d0157829050613d05565b8190505b92915050565b606082600001519050613d1e83836139b1565b613d288382613b9d565b50505050565b6040518060800160405280600073ffffffffffffffffffffffffffffffffffffffff1681526020016000815260200160008152602001600081525090565b604051806060016040528060008019168152602001600015158152602001606081525090565b828054600181600116156101000203166002900490600052602060002090601f016020900481019282601f10613dd357805160ff1916838001178555613e01565b82800160010185558215613e01579182015b82811115613e00578251825591602001919060010190613de5565b5b509050613e0e9190613e53565b5090565b60405180608001604052806004905b6060815260200190600190039081613e215790505090565b604051806040016040528060608152602001600081525090565b5b80821115613e6c576000816000905550600101613e54565b509056fe536166654d6174683a206d756c7469706c69636174696f6e206f766572666c6f7750726f7661626c65207175657279207761732073656e742c207374616e64696e6720627920666f722074686520616e737765722e2e2ea2646970667358221220e9a8f6168cc0fc8afd6370fe6802d12c57d8bab1e348c56461cbec5485cd8e3e64736f6c634300060c0033",
  "immutableReferences": {},
  "source": "// SPDX-License-Identifier: MIT\r\n\r\nimport \"./Ownable.sol\";\r\nimport \"./ProvableAPI.sol\";\r\nimport \"@openzeppelin/contracts/math/SafeMath.sol\";\r\npragma solidity 0.6.12;\r\n\r\n//Comments\r\n\r\ncontract CoinFlip is Ownable, usingProvable {\r\n\r\n  // Use openzeppelin SafeMath library\r\n  using SafeMath for uint;\r\n\r\n  // Keep track of balance\r\n  uint public balance;\r\n\r\n  // Funds that are locked in unsettled potentially winning bets. Prevents contract from\r\n  // committing to bets it cannot pay out.\r\n  uint public lockedInBets;\r\n\r\n  // Keep track of Winnings that have not yet been withdrawn. Prevents contract\r\n  // from committing to bets it cannot pay out.\r\n  uint public winningsOwed;\r\n\r\n  // Minimum and maximum bets\r\n  uint constant minBet = 0.1 ether;\r\n  uint constant maxBet = 2 ether;\r\n\r\n  // Win & Lose event\r\n  event gameResult(address gambler, string result, uint amount);\r\n\r\n  // Provable Random Number Events\r\n  event newBetPlaced(bytes32 queryId);\r\n  event logNewProvableQuery(string description);\r\n  event generatedRandomNumber(uint256 randomNumber);\r\n  event provableVerificationFailed(string description);\r\n  event somethingWentWrong(address gambler);\r\n\r\n  // A structure representing a single bet.\r\n  struct Bet {\r\n    address payable gambler;\r\n    uint amount;\r\n    uint side;\r\n    uint result;\r\n  }\r\n\r\n  // A structure for a Gambler's latest Bet\r\n  struct Latest {\r\n    bytes32 queryId;\r\n    bool unsettled;\r\n    string result;\r\n  }\r\n\r\n\r\n  // Mapping to all active & settled bets.\r\n  mapping (bytes32 => Bet) public bets;\r\n\r\n  // Mapping to keep track of each gambler's latest Bet.\r\n  mapping (address => Latest) public latestBet;\r\n\r\n  // Mapping to keep track of gambler balance.\r\n  mapping (address => uint) public gamblerBalance;\r\n\r\n  // Insert a new Bet into the bets mapping.\r\n  function insertBet(Bet memory newBet, bytes32 _id) private returns (address){\r\n      bets[_id] = newBet;\r\n      return bets[_id].gambler;\r\n  }\r\n\r\n  function insertLatest(Latest memory newLatest, address gambler) private {\r\n      latestBet[gambler] = newLatest;\r\n  }\r\n\r\n  function random() payable public returns (bytes32) {\r\n    uint256 QUERY_EXECUTION_DELAY = 0; // NOTE: The datasource currently does not support delays > 0!\r\n    uint256 GAS_FOR_CALLBACK = 200000;\r\n    uint256 NUM_RANDOM_BYTES_REQUESTED = 1;\r\n    bytes32 queryId = provable_newRandomDSQuery(\r\n        QUERY_EXECUTION_DELAY,\r\n        NUM_RANDOM_BYTES_REQUESTED,\r\n        GAS_FOR_CALLBACK\r\n    );\r\n    emit logNewProvableQuery(\"Provable query was sent, standing by for the answer...\");\r\n    return queryId;\r\n  }\r\n\r\n  // Place bet on side of coin\r\n  function placeBet (uint _side) payable external {\r\n    // Check if gambler has existing bets open\r\n    require(latestBet[msg.sender].unsettled == false, 'Still has an open Bet');\r\n    // Require bet to be with the range of value\r\n    require(msg.value >= minBet && msg.value <= maxBet);\r\n    // Check whether contract has funds to process this bet\r\n    require(balance - (winningsOwed + (lockedInBets * 2)) > (msg.value  * 2));\r\n\r\n    // This creates a new Bet\r\n    Bet memory newBet;\r\n    newBet.gambler = msg.sender;\r\n    newBet.amount = msg.value;\r\n    newBet.side = _side;\r\n\r\n    bytes32 _queryId = random();\r\n\r\n    // This creates a latest Bet\r\n    Latest memory newLatest;\r\n    newLatest.queryId = _queryId;\r\n    newLatest.unsettled = true;\r\n    newLatest.result = 'Pending';\r\n\r\n    insertBet(newBet, _queryId);\r\n    insertLatest(newLatest, msg.sender);\r\n    balance = SafeMath.add(balance, msg.value);\r\n    lockedInBets += msg.value;\r\n\r\n    emit newBetPlaced(_queryId);\r\n  }\r\n\r\n  // Function to close state of open Bets after being settled.\r\n  function closeOpenBet(address gambler, uint amount) private {\r\n    latestBet[gambler].unsettled = false;\r\n    lockedInBets -= amount;\r\n  }\r\n\r\n  //Function to run to update the bet upon receiving Random Number\r\n  function settleBet (bytes32 _id) private {\r\n    uint amount = bets[_id].amount;\r\n    address payable gambler = bets[_id].gambler;\r\n    uint side = bets[_id].side;\r\n    uint result = bets[_id].result;\r\n\r\n    if (side == 1) {\r\n      if (result == 1) {\r\n        latestBet[gambler].result = 'Win';\r\n        closeOpenBet(gambler, amount);\r\n        uint amountWon = SafeMath.mul(amount,2);\r\n        winningsOwed = SafeMath.add(winningsOwed, amountWon);\r\n        gamblerBalance[gambler] += amountWon;\r\n        emit gameResult(gambler, 'Win', amountWon);\r\n      } else if (result == 2) {\r\n        latestBet[gambler].result = 'Lose';\r\n        closeOpenBet(gambler, amount);\r\n        emit gameResult(gambler, 'Lose', amount);\r\n      } else {\r\n        latestBet[gambler].result = 'Bet refunded';\r\n        closeOpenBet(gambler, amount);\r\n        winningsOwed = SafeMath.add(winningsOwed, amount);\r\n        gamblerBalance[gambler] += amount;\r\n        emit gameResult(gambler, 'Bet refunded', amount);\r\n      }\r\n    }\r\n\r\n    if (side == 2) {\r\n      if (result == 2) {\r\n        latestBet[gambler].result = 'Win';\r\n        closeOpenBet(gambler, amount);\r\n        uint amountWon = SafeMath.mul(amount,2);\r\n        winningsOwed = SafeMath.add(winningsOwed, amountWon);\r\n        gamblerBalance[gambler] += amountWon;\r\n        emit gameResult(gambler, 'Win', amountWon);\r\n      } else if (result == 1) {\r\n        latestBet[gambler].result = 'Lose';\r\n        closeOpenBet(gambler, amount);\r\n        emit gameResult(gambler, 'Lose', amount);\r\n      } else {\r\n        latestBet[gambler].result = 'Bet refunded';\r\n        closeOpenBet(gambler, amount);\r\n        winningsOwed = SafeMath.add(winningsOwed, amount);\r\n        gamblerBalance[gambler] += amount;\r\n        emit gameResult(gambler, 'Bet refunded', amount);\r\n      }\r\n    }\r\n  }\r\n\r\n\r\n  function __callback(bytes32 _queryId, string memory _result) public override {\r\n    require(msg.sender == provable_cbAddress());\r\n\r\n    uint256 randomNumber = (uint256(keccak256(abi.encodePacked(_result))) % 2) + 1;\r\n    bets[_queryId].result = randomNumber;\r\n    settleBet(_queryId);\r\n    emit generatedRandomNumber(randomNumber);\r\n  }\r\n\r\n  // Function to get result of the Gambler's last game\r\n  function getLatestBet() public view returns (string memory)  {\r\n    return latestBet[msg.sender].result;\r\n  }\r\n\r\n  // Function for Gambler to withdraw funds from their winnings.\r\n  function gamblerWithdrawFunds() public {\r\n    require(gamblerBalance[msg.sender] > 0);\r\n    uint amount = gamblerBalance[msg.sender];\r\n    gamblerBalance[msg.sender] = 0;\r\n    balance = SafeMath.sub(balance, amount);\r\n    winningsOwed = SafeMath.sub(winningsOwed, amount);\r\n    msg.sender.transfer(amount);\r\n  }\r\n\r\n  // Function for Gambler to see winnings they are able to withdraw.\r\n  function getGamblerWinningsOwed() external view returns (uint) {\r\n    uint _gamblerBalance = gamblerBalance[msg.sender];\r\n    return _gamblerBalance;\r\n  }\r\n\r\n  //Fallback function to add funds to the Contract\r\n  function addFunds() payable external {\r\n    balance = SafeMath.add(balance,msg.value);\r\n  }\r\n\r\n  //Funds withdrawal to cover costs of CoinFlip - can only be made when there are no bets locked in\r\n  function withdrawFunds(uint amount) external onlyOwner returns (uint) {\r\n    require(amount <= balance - (winningsOwed + (lockedInBets * 2)), 'Not enough funds.');\r\n    balance = SafeMath.sub(balance, amount);\r\n    msg.sender.transfer(amount);\r\n    return amount;\r\n  }\r\n\r\n  // Contract may be destroyed by Owner\r\n  function destroy() public onlyOwner {\r\n    require(lockedInBets == 0);\r\n    require(winningsOwed == 0);\r\n    selfdestruct(owner);\r\n  }\r\n}\r\n",
  "sourcePath": "C:/Users/beny/Documents/Coding/CoinFlipFinalNew/Truffle/contracts/CoinFlip.sol",
  "compiler": {
    "name": "solc",
    "version": "0.6.12+commit.27d51765.Emscripten.clang"
  },
  "schemaVersion": "3.3.3",
  "updatedAt": "2021-02-11T12:47:16.167Z",
  "networkType": "ethereum",
  "devdoc": {
    "kind": "dev",
    "methods": {},
    "version": 1
  },
  "userdoc": {
    "kind": "user",
    "methods": {},
    "version": 1
  }
}